S0160000436F646520666F72206C616220332E737265638A
S11300000C946C010C9489010C9489010C94890161
S11300100C9489010C9489010C9489010C94890134
S11300200C9489010C9489010C9489010C94890124
S11300300C9489010C9489010C9489010C94890114
S11300400C9489010C9489010C9489010C94890104
S11300500C9489010C9489010C9489010C948901F4
S11300600C9489010C948901000000000000000038
S1130070002F000000000700070000147F147F1405
S113008000242A7F2A12006264081323003649558B
S1130090225000000503000000001C224100000063
S11300A041221C000014083E08140008083E0808F9
S11300B0000000A060000008080808080000606054
S11300C00000002010080402003E5149453E000093
S11300D0427F4000004261514946002141454B3175
S11300E0001814127F10002745454539003C4A4941
S11300F049300001710905030036494949360006B3
S11301004949291E0000363600000000563600001A
S11301100008142241000014141414140000412295
S1130120140800020151090600324959513E007C6D
S11301301211127C007F49494936003E4141412257
S1130140007F4141221C007F49494941007F090940
S11301500901003E4149497A007F0808087F0000F0
S1130160417F4100002040413F01007F08142241AB
S1130170007F40404040007F020C027F007F040863
S1130180107F003E4141413E007F09090906003EBF
S11301904151215E007F09192946004649494931E8
S11301A00001017F0101003F4040403F001F20400B
S11301B0201F003F4038403F0063140814630007C9
S11301C00870080700615149454300007F41410020
S11301D000552A552A55000041417F0000040201C0
S11301E0020400404040404000000102040000209E
S11301F054545478007F48444438003844444420DC
S113020000384444487F00385454541800087E0988
S113021001020018A4A4A47C007F08040478000050
S1130220447D4000004080847D00007F102844000D
S11302300000417F4000007C04180478007C08041E
S1130240047800384444443800FC2424241800185A
S1130250242418FC007C0804040800485454542046
S113026000043F444020003C4040207C001C2040CF
S1130270201C003C4030403C004428102844001C12
S1130280A0A0A07C004464544C44000008774100C2
S11302900000006300000000417708000008040823
S11302A00804003A4040207A003D4040403D00218F
S11302B054545479007D1211127D00394444443958
S11302C0003D4242423D000205020000007E014919
S11302D05573007C1010081C11241FBECFEFD8E00A
S11302E0DEBFCDBF11E0A0E0B1E0E2EAF7E002C07A
S11302F005900D92A430B107D9F721E0A4E0B1E054
S113030001C01D92A630B207E1F70E94C2020C940C
S1130310CF030C94000094EA9093BC00ECEBF0E063
S113032090819923ECF78093BB0084E88093BC0010
S1130330ECEBF0E080818823ECF7089584E9809366
S1130340BC0008958093BB0084E88093BC00ECEB70
S1130350F0E080818823ECF70895EF92FF920F93E9
S11303601F93CF93DF937C01162F88E70E948B01A4
S113037080E00E94A201112371F0E7011150012FC6
S113038010E00F5F1F4F0E0D1F1D89910E94A201E7
S1130390C017D107D1F70E949E01DF91CF911F9121
S11303A00F91FF90EF900895EF92FF920F931F9398
S11303B0CF93DF937C018B0188E70E948B0180E45B
S11303C00E94A2010115110549F0E7010E0D1F1D40
S11303D089910E94A201C017D107D1F70E949E0102
S11303E0DF91CF911F910F91FF90EF900895CF93DC
S11303F0DF9300D000D01F92CDB7DEB7863138F539
S1130400683028F5982F990F890F880FE4E0F1E000
S1130410808361836055698391E29A8392E0980FA7
S11304209F709B8390E00296807F9927959587958E
S1130430959587959595879595958795805F8C83F8
S11304408FE78D8365E0CE0101960E94AD010F9088
S11304500F900F900F900F90DF91CF91089560E06F
S113046080E00E94F70108951F93CF93DF93CDB7E7
S1130470DEB7C058D1090FB6F894DEBF0FBECDBFAA
S1130480FE01319680E8DF011D928A95E9F710E0BC
S1130490612F80E00E94F70160E870E0CE010196D0
S11304A00E94D4011F5F183099F70E942F02C05890
S11304B0DF4F0FB6F894DEBF0FBECDBFDF91CF91F3
S11304C01F910895ACE7B0E020E62C93EAE7F0E052
S11304D026E820832C9187709927822B8C93808126
S11304E080648083808186FDFDCF809179000895AA
S11304F00F931F93CF93DF93C82FD62F0E943402FC
S11305006D2F8C2F0E94F70188E70E948B0180E4F5
S11305100E94A201CEE2D1E005E311E0FE01849144
S11305200E94A2012196C017D107C1F70E949E0123
S1130530DF91CF911F910F9108950F931F93CF9344
S1130540DF93C82FD62F0E9434026D2F8C2F0E9468
S1130550F70188E70E948B0180E40E94A201C4EAAB
S1130560D0E00BEA10E0FE0184910E94A2012196E2
S1130570C017D107C1F70E949E01DF91CF911F914F
S11305800F9108950F2EFAE0EF2EF12CF02D04E0D8
S113059010E00F2EFCE18F2E912CF02D0F2EFDE795
S11305A0CF2ED12CF02D0F2EF7E06F2E712CF02DC5
S11305B00F2EF4E1AF2EB12CF02D80E090E00E94DC
S11305C06202482EC82FD0E081E090E00E946202CF
S11305D0582E83E090E00E946202F0920301E092C0
S11305E00201109301010093000190E0893C910500
S11305F02CF0B801C7010E949D020EC0842D90E02A
S11306008E579109049740F482E8850D843020F4D4
S1130610B801C7010E947802C838D1051CF1CE0187
S11306208D579109B4010E94A70380910201909112
S11306300301680F791F643171052CF47093030171
S11306406093020104C0B0920301A0920201609180
S113065000017091010180910201909103010E94B7
S11306607802ABCFC837D1051CF5C6018C1B9D0B96
S1130670B4010E94A7038091020190910301861B9B
S1130680970B181619062CF490930301809302011A
S113069004C0109203011092020160910001709154
S11306A0010180910201909103010E94780285CF9B
S11306B0852D90E08837910524F59601281B390B88
S11306C0C901B4010E94A703809100019091010126
S11306D0680F791F673071052CF4709301016093E2
S11306E0000104C070920101609200016091000158
S11306F07091010180910201909103010E9478029E
S11307005CCF883891050CF458CF8D579109B4010A
S11307100E94A7038091000190910101861B970B11
S1130720181619062CF4909301018093000104C05B
S11307301092010110920001609100017091010179
S113074080910201909103010E94780236CF97FBB9
S1130750072E16F4009407D077FD09D00E94BB033E
S113076007FC05D03EF4909581959F4F08957095B0
S113077061957F4F0895AA1BBB1B51E107C0AA1FB7
S1130780BB1FA617B70710F0A61BB70B881F991F2E
S11307905A95A9F780959095BC01CD010895F894D8
S10507A0FFCF85
S10707A204000A0041
S9030000FC
